{
  "contractName": "Customer",
  "abi": [
    {
      "anonymous": false,
      "inputs": [
        {
          "indexed": false,
          "internalType": "address",
          "name": "_address",
          "type": "address"
        },
        {
          "indexed": true,
          "internalType": "address",
          "name": "Customer",
          "type": "address"
        },
        {
          "indexed": false,
          "internalType": "uint256",
          "name": "status",
          "type": "uint256"
        }
      ],
      "name": "MedicineStatus",
      "type": "event"
    },
    {
      "inputs": [
        {
          "internalType": "address",
          "name": "",
          "type": "address"
        },
        {
          "internalType": "uint256",
          "name": "",
          "type": "uint256"
        }
      ],
      "name": "MedicineBatchAtCustomer",
      "outputs": [
        {
          "internalType": "address",
          "name": "",
          "type": "address"
        }
      ],
      "stateMutability": "view",
      "type": "function"
    },
    {
      "inputs": [
        {
          "internalType": "address",
          "name": "",
          "type": "address"
        }
      ],
      "name": "sale",
      "outputs": [
        {
          "internalType": "enum Customer.salestatus",
          "name": "",
          "type": "uint8"
        }
      ],
      "stateMutability": "view",
      "type": "function"
    },
    {
      "inputs": [
        {
          "internalType": "address",
          "name": "_address",
          "type": "address"
        },
        {
          "internalType": "address",
          "name": "cid",
          "type": "address"
        }
      ],
      "name": "medicineRecievedAtCustomer",
      "outputs": [],
      "stateMutability": "nonpayable",
      "type": "function"
    },
    {
      "inputs": [
        {
          "internalType": "address",
          "name": "_address",
          "type": "address"
        },
        {
          "internalType": "uint256",
          "name": "Status",
          "type": "uint256"
        }
      ],
      "name": "updateSaleStatus",
      "outputs": [],
      "stateMutability": "nonpayable",
      "type": "function"
    },
    {
      "inputs": [
        {
          "internalType": "address",
          "name": "_address",
          "type": "address"
        }
      ],
      "name": "salesInfo",
      "outputs": [
        {
          "internalType": "uint256",
          "name": "Status",
          "type": "uint256"
        }
      ],
      "stateMutability": "view",
      "type": "function"
    }
  ],
  "bytecode": "0x608060405234801561001057600080fd5b5061039d806100206000396000f3fe608060405234801561001057600080fd5b50600436106100575760003560e01c80634aab07261461005c57806375df2684146100a4578063bb8ee1c5146100ee578063da48f20c14610126578063eae3c20714610156575b600080fd5b6100886004803603604081101561007257600080fd5b506001600160a01b038135169060200135610182565b604080516001600160a01b039092168252519081900360200190f35b6100ca600480360360208110156100ba57600080fd5b50356001600160a01b03166101b7565b604051808260048111156100da57fe5b60ff16815260200191505060405180910390f35b6101146004803603602081101561010457600080fd5b50356001600160a01b03166101cc565b60408051918252519081900360200190f35b6101546004803603604081101561013c57600080fd5b506001600160a01b03813581169160200135166101f9565b005b6101546004803603604081101561016c57600080fd5b506001600160a01b0381351690602001356102dd565b6000602052816000526040600020818154811061019b57fe5b6000918252602090912001546001600160a01b03169150829050565b60016020526000908152604090205460ff1681565b6001600160a01b03811660009081526001602052604081205460ff1660048111156101f357fe5b92915050565b60408051637bd6ee1f60e11b81526001600160a01b03848116600483015233602483015291519183169163f7addc3e9160448082019260009290919082900301818387803b15801561024a57600080fd5b505af115801561025e573d6000803e3d6000fd5b5050336000908152602081815260408220805460018082018355918452919092200180546001600160a01b0319166001600160a01b03871617905591506102a29050565b6001600160a01b03831660009081526001602081905260409091208054909160ff19909116908360048111156102d457fe5b02179055505050565b8060048111156102e957fe5b6001600160a01b03831660009081526001602081905260409091208054909160ff199091169083600481111561031b57fe5b0217905550604080516001600160a01b038416815260208101839052815133927f778762ccb04f5a8838ed8914b13eb6f118224696959cbfa0cfea54133f76a7d5928290030190a2505056fea2646970667358221220c26dbcae01482b54bed620c6d8acd58b4118d933cadd6f2acd8a64c9b59e3a5664736f6c63430006060033",
  "immutableReferences": {},
  "source": "pragma solidity ^0.6.6;\n\nimport './MedicineD_C.sol';\n\ncontract Customer {\n    \n    mapping(address => address[]) public MedicineBatchAtCustomer;\n    mapping(address => salestatus) public sale;\n\n    enum salestatus {\n        notfound,\n        atcustomer,\n        sold,\n        expired,\n        damaged\n    }\n\n    event MedicineStatus(\n        address _address,\n        address indexed Customer,\n        uint status\n    );\n\n    function medicineRecievedAtCustomer(\n        address _address,\n        address cid\n    ) public {\n        MedicineD_C(cid).receiveDC(_address, msg.sender);\n        MedicineBatchAtCustomer[msg.sender].push(_address);\n        sale[_address] = salestatus(1);\n    }\n\n    function updateSaleStatus(\n        address _address,\n        uint Status\n    ) public {\n        sale[_address] = salestatus(Status);\n        emit MedicineStatus(_address, msg.sender, Status);\n    }\n\n    function salesInfo(\n        address _address\n    ) public\n    view\n    returns(\n        uint Status\n    ){\n        return uint(sale[_address]);\n    }\n\n}",
  "sourcePath": "E:\\chelly_dhia\\desktop\\project\\blockchain\\testing\\Customer.sol",
  "compiler": {
    "name": "solc",
    "version": "0.6.6+commit.6c089d02.Emscripten.clang"
  },
  "schemaVersion": "3.4.11",
  "updatedAt": "2022-12-14T08:10:21.401Z",
  "devdoc": {
    "methods": {}
  },
  "userdoc": {
    "methods": {}
  }
}