{
  "contractName": "Medicine",
  "abi": [
    {
      "inputs": [
        {
          "internalType": "address",
          "name": "_manufacturerAddr",
          "type": "address"
        },
        {
          "internalType": "bytes32",
          "name": "_description",
          "type": "bytes32"
        },
        {
          "internalType": "address[]",
          "name": "_rawAddr",
          "type": "address[]"
        },
        {
          "internalType": "uint256",
          "name": "_quantity",
          "type": "uint256"
        },
        {
          "internalType": "address[]",
          "name": "_transporterAddr",
          "type": "address[]"
        }
      ],
      "stateMutability": "nonpayable",
      "type": "constructor"
    },
    {
      "anonymous": false,
      "inputs": [
        {
          "indexed": true,
          "internalType": "address",
          "name": "BatchID",
          "type": "address"
        },
        {
          "indexed": true,
          "internalType": "address",
          "name": "Shipper",
          "type": "address"
        },
        {
          "indexed": true,
          "internalType": "address",
          "name": "Receiver",
          "type": "address"
        },
        {
          "indexed": false,
          "internalType": "uint256",
          "name": "TransporterType",
          "type": "uint256"
        },
        {
          "indexed": false,
          "internalType": "uint256",
          "name": "Status",
          "type": "uint256"
        }
      ],
      "name": "ShippmentUpdate",
      "type": "event"
    },
    {
      "inputs": [],
      "name": "getMedicineInfo",
      "outputs": [
        {
          "internalType": "address",
          "name": "_manufacturerAddr",
          "type": "address"
        },
        {
          "internalType": "bytes32",
          "name": "_description",
          "type": "bytes32"
        },
        {
          "internalType": "address[]",
          "name": "_rawAddr",
          "type": "address[]"
        },
        {
          "internalType": "uint256",
          "name": "_quantity",
          "type": "uint256"
        },
        {
          "internalType": "address[]",
          "name": "_transporterAddr",
          "type": "address[]"
        },
        {
          "internalType": "address",
          "name": "_distributor",
          "type": "address"
        },
        {
          "internalType": "uint256",
          "name": "_status",
          "type": "uint256"
        },
        {
          "internalType": "address",
          "name": "_txnContract",
          "type": "address"
        },
        {
          "internalType": "address",
          "name": "_wholesaler",
          "type": "address"
        }
      ],
      "stateMutability": "view",
      "type": "function"
    },
    {
      "inputs": [],
      "name": "getWDC",
      "outputs": [
        {
          "internalType": "address[3]",
          "name": "WDP",
          "type": "address[3]"
        }
      ],
      "stateMutability": "view",
      "type": "function"
    },
    {
      "inputs": [],
      "name": "getBatchIDStatus",
      "outputs": [
        {
          "internalType": "uint256",
          "name": "",
          "type": "uint256"
        }
      ],
      "stateMutability": "view",
      "type": "function"
    },
    {
      "inputs": [
        {
          "internalType": "address",
          "name": "_transporterAddr",
          "type": "address"
        }
      ],
      "name": "pickMedicine",
      "outputs": [],
      "stateMutability": "nonpayable",
      "type": "function"
    },
    {
      "inputs": [
        {
          "internalType": "address",
          "name": "_transporterAddr",
          "type": "address"
        }
      ],
      "name": "updateTransporterArray",
      "outputs": [],
      "stateMutability": "nonpayable",
      "type": "function"
    },
    {
      "inputs": [
        {
          "internalType": "address",
          "name": "addr",
          "type": "address"
        }
      ],
      "name": "updateWholesalerAddress",
      "outputs": [],
      "stateMutability": "nonpayable",
      "type": "function"
    },
    {
      "inputs": [
        {
          "internalType": "address",
          "name": "addr",
          "type": "address"
        }
      ],
      "name": "updateDistributorAddress",
      "outputs": [],
      "stateMutability": "nonpayable",
      "type": "function"
    },
    {
      "inputs": [
        {
          "internalType": "address",
          "name": "_receiverAddr",
          "type": "address"
        }
      ],
      "name": "receivedMedicine",
      "outputs": [
        {
          "internalType": "uint256",
          "name": "",
          "type": "uint256"
        }
      ],
      "stateMutability": "nonpayable",
      "type": "function"
    },
    {
      "inputs": [
        {
          "internalType": "address",
          "name": "receiver",
          "type": "address"
        },
        {
          "internalType": "address",
          "name": "sender",
          "type": "address"
        }
      ],
      "name": "sendWtoD",
      "outputs": [],
      "stateMutability": "nonpayable",
      "type": "function"
    },
    {
      "inputs": [
        {
          "internalType": "address",
          "name": "receiver",
          "type": "address"
        }
      ],
      "name": "receivedWtoD",
      "outputs": [],
      "stateMutability": "nonpayable",
      "type": "function"
    },
    {
      "inputs": [
        {
          "internalType": "address",
          "name": "receiver",
          "type": "address"
        },
        {
          "internalType": "address",
          "name": "sender",
          "type": "address"
        }
      ],
      "name": "sendDtoC",
      "outputs": [],
      "stateMutability": "nonpayable",
      "type": "function"
    },
    {
      "inputs": [
        {
          "internalType": "address",
          "name": "receiver",
          "type": "address"
        }
      ],
      "name": "receivedDtoC",
      "outputs": [],
      "stateMutability": "nonpayable",
      "type": "function"
    }
  ],
  "bytecode": "0x60806040523480156200001157600080fd5b5060405162001b8738038062001b87833981810160405260a08110156200003757600080fd5b815160208301516040808501805191519395929483019291846401000000008211156200006357600080fd5b9083019060208201858111156200007957600080fd5b82518660208202830111640100000000821117156200009757600080fd5b82525081516020918201928201910280838360005b83811015620000c6578181015183820152602001620000ac565b505050509050016040526020018051906020019092919080516040519392919084640100000000821115620000fa57600080fd5b9083019060208201858111156200011057600080fd5b82518660208202830111640100000000821117156200012e57600080fd5b82525081516020918201928201910280838360005b838110156200015d57818101518382015260200162000143565b50505050919091016040525050600080546001600160a01b0389166001600160a01b03199182168117909255600480549091169091179055505060018490558251620001b190600290602086019062000268565b5060088290558051620001cc90600390602084019062000268565b50600580546001600160a01b03199081169091556006805490911690556009805460ff1916905560405160009086906200020690620002d2565b6001600160a01b03909116815260405190819003602001906000f08015801562000234573d6000803e3d6000fd5b50600980546001600160a01b0390921661010002610100600160a81b0319909216919091179055506200030a945050505050565b828054828255906000526020600020908101928215620002c0579160200282015b82811115620002c057825182546001600160a01b0319166001600160a01b0390911617825560209092019160019091019062000289565b50620002ce929150620002e0565b5090565b610b63806200102483390190565b6200030791905b80821115620002ce5780546001600160a01b0319168155600101620002e7565b90565b610d0a806200031a6000396000f3fe608060405234801561001057600080fd5b50600436106100b45760003560e01c8063ac42a41511610071578063ac42a415146101d3578063c8f5f189146101f9578063d2f3fcc71461021f578063e002c8a514610227578063e138d4ce14610341578063f5c0e38314610367576100b4565b80631fedd36c146100b95780632f1d7588146100f157806393a668b71461012157806396991e7914610147578063aab3a9d61461016d578063abb428a614610193575b600080fd5b6100df600480360360208110156100cf57600080fd5b50356001600160a01b0316610395565b60408051918252519081900360200190f35b61011f6004803603604081101561010757600080fd5b506001600160a01b0381358116916020013516610687565b005b61011f6004803603602081101561013757600080fd5b50356001600160a01b0316610710565b61011f6004803603602081101561015d57600080fd5b50356001600160a01b031661077d565b61011f6004803603602081101561018357600080fd5b50356001600160a01b031661079f565b61019b6107f1565b6040518082606080838360005b838110156101c05781810151838201526020016101a8565b5050505090500191505060405180910390f35b61011f600480360360208110156101e957600080fd5b50356001600160a01b031661082c565b61011f6004803603602081101561020f57600080fd5b50356001600160a01b03166109ad565b6100df610a16565b61022f610a2f565b604051808a6001600160a01b03166001600160a01b031681526020018981526020018060200188815260200180602001876001600160a01b03166001600160a01b03168152602001868152602001856001600160a01b03166001600160a01b03168152602001846001600160a01b03166001600160a01b0316815260200183810383528a818151815260200191508051906020019060200280838360005b838110156102e55781810151838201526020016102cd565b50505050905001838103825288818151815260200191508051906020019060200280838360005b8381101561032457818101518382015260200161030c565b505050509050019b50505050505050505050505060405180910390f35b61011f6004803603602081101561035757600080fd5b50356001600160a01b0316610b65565b61011f6004803603604081101561037d57600080fd5b506001600160a01b0381358116916020013516610b87565b6005546000906001600160a01b03838116911614806103c157506006546001600160a01b038381169116145b806103d957506007546001600160a01b038381169116145b6104145760405162461bcd60e51b8152600401808060200182810382526035815260200180610c346035913960400191505060405180910390fd5b60095460019060ff16600681111561042857fe5b1015610477576040805162461bcd60e51b8152602060048201526019602482015278141c9bd91d58dd081b9bdd081c1a58dad959081d5c081e595d603a1b604482015290519081900360640190fd5b6005546001600160a01b0383811691161480156104a45750600160095460ff1660068111156104a257fe5b145b15610528576009805460ff1916600390811790915560055481546001600160a01b03909116919060001981019081106104d957fe5b60009182526020918290200154604080516002815260039381019390935280516001600160a01b03909216923092600080516020610c14833981519152929181900390910190a4506001610682565b6006546001600160a01b0383811691161480156105555750600260095460ff16600681111561055357fe5b145b156105d7576009805460ff19166004179055600654600380546001600160a01b0390921691600019810190811061058857fe5b60009182526020918290200154604080516003815260049381019390935280516001600160a01b03909216923092600080516020610c14833981519152929181900390910190a4506002610682565b6007546001600160a01b0383811691161480156106045750600560095460ff16600681111561060257fe5b145b15610682576009805460ff19166006179055600754600380546001600160a01b0390921691600019810190811061063757fe5b60009182526020918290200154604080516004815260059381019390935280516001600160a01b03909216923092600080516020610c14833981519152929181900390910190a45060035b919050565b6006546001600160a01b038281169116146106d35760405162461bcd60e51b8152600401808060200182810382526023815260200180610c8b6023913960400191505060405180910390fd5b600780546001600160a01b0319166001600160a01b03841617905560055b6009805460ff1916600183600681111561070757fe5b02179055505050565b6006546001600160a01b0382811691161461075c5760405162461bcd60e51b8152600401808060200182810382526023815260200180610c8b6023913960400191505060405180910390fd5b60045b6009805460ff1916600183600681111561077557fe5b021790555050565b600680546001600160a01b0319166001600160a01b0392909216919091179055565b600380546001810182556000919091527fc2575a0e9e593c00f959f8c92f12db2869c3395a3b0502d05e2516446f71f85b0180546001600160a01b0319166001600160a01b0392909216919091179055565b6107f9610bf5565b50604080516060810182526005546001600160a01b03908116825260065481166020830152600754169181019190915290565b60038054600019810190811061083e57fe5b6000918252602090912001546001600160a01b038281169116146108935760405162461bcd60e51b8152600401808060200182810382526027815260200180610cae6027913960400191505060405180910390fd5b600060095460ff1660068111156108a657fe5b146108f8576040805162461bcd60e51b815260206004820181905260248201527f5061636b616765206d757374206265206174204d616e7566616374757265722e604482015290519081900360640190fd5b6005546001600160a01b03161561095b576009805460ff1916600190811790915560055460408051838152602081019390935280516001600160a01b0392831693928516923092600080516020610c1483398151915292918290030190a46109aa565b6009805460ff191660029081179091556006546040805160018152602081019390935280516001600160a01b0392831693928516923092600080516020610c1483398151915292918290030190a45b50565b6007546001600160a01b03828116911614610a0f576040805162461bcd60e51b815260206004820181905260248201527f5468697320437573746f6d6572206973206e6f74204173736f6369617465642e604482015290519081900360640190fd5b600661075f565b60095460009060ff166006811115610a2a57fe5b905090565b6004546001546008546006805460095460009586956060958795879587958695869586956001600160a01b03928316959194600294919360039391169160ff1690811115610a7957fe5b6009546005548654604080516020808402820181019092528281526101009094046001600160a01b0390811694931692918991830182828015610ae557602002820191906000526020600020905b81546001600160a01b03168152600190910190602001808311610ac7575b5050505050965084805480602002602001604051908101604052809291908181526020018280548015610b4157602002820191906000526020600020905b81546001600160a01b03168152600190910190602001808311610b23575b50505050509450985098509850985098509850985098509850909192939495969798565b600580546001600160a01b0319166001600160a01b0392909216919091179055565b6005546001600160a01b03828116911614610bd35760405162461bcd60e51b8152600401808060200182810382526022815260200180610c696022913960400191505060405180910390fd5b600680546001600160a01b0319166001600160a01b03841617905560026106f1565b6040518060600160405280600390602082028036833750919291505056fe7e89c4b1a4e2b51aae84eb1f90e8a34cb792ece5ac5cb63db4830c891220b28d4f6e6c792057686f6c6573616c6572206f72204469737472696275746f722063616e2063616c6c20746869732066756e6374696f6e746869732057686f6c6573616c6572206973206e6f74204173736f6369617465642e54686973204469737472696275746f72206973206e6f74204173736f6369617465642e4f6e6c79205472616e73706f727465722063616e2063616c6c20746869732066756e6374696f6ea2646970667358221220b44d7a2f03a1cac88207257c11815ef661138436ec5582eee2ce358433cedc9564736f6c634300060600336080604052600060025534801561001557600080fd5b50604051610b63380380610b6383398101604081905261003491610059565b600080546001600160a01b0319166001600160a01b0392909216919091179055610087565b60006020828403121561006a578081fd5b81516001600160a01b0381168114610080578182fd5b9392505050565b610acd806100966000396000f3fe608060405234801561001057600080fd5b506004361061004c5760003560e01c806327506f53146100515780633626a3681461006f57806378ce1365146100845780639ace38c214610099575b600080fd5b6100596100bf565b60405161006691906108b6565b60405180910390f35b61008261007d3660046107bb565b6102c7565b005b61008c61050b565b6040516100669190610a76565b6100ac6100a7366004610853565b610511565b604051610066979695949392919061097f565b600254606090818167ffffffffffffffff811180156100dd57600080fd5b5060405190808252806020026020018201604052801561011757816020015b61010461066a565b8152602001906001900390816100fc5790505b50905060005b828110156102bf57600081815260016020818152604092839020835160e08101855281548152818401546001600160a01b0390811682850152600280840154909116828701526003830154606083015260048301805487516101009782161597909702600019011691909104601f81018590048502860185019096528585529094919360808601939092908301828280156101f95780601f106101ce576101008083540402835291602001916101f9565b820191906000526020600020905b8154815290600101906020018083116101dc57829003601f168201915b505050918352505060058201805460408051602060026001851615610100026000190190941693909304601f810184900484028201840190925281815293820193929183018282801561028d5780601f106102625761010080835404028352916020019161028d565b820191906000526020600020905b81548152906001019060200180831161027057829003601f168201915b505050505081526020016006820154815250508282815181106102ac57fe5b602090810291909101015260010161011d565b509150505b90565b60025442906103a6576040805160e0810182528881526001600160a01b038089166020808401918252898316848601908152606085018a8152608086018a815260a087018a905260c08701899052600280546000908152600180875299902088518155955198860180549988166001600160a01b03199a8b1617905592519285018054939096169290971691909117909355915160038201559251805192939261037792600485019201906106a5565b5060a082015180516103939160058401916020909101906106a5565b5060c082015181600601559050506104b5565b6002546000190160009081526001602052604090205484146103e35760405162461bcd60e51b81526004016103da90610a3f565b60405180910390fd5b6040805160e0810182528881526001600160a01b038089166020808401918252898316848601908152606085018a8152608086018a815260a087018a905260c08701899052600280546000908152600180875299902088518155955198860180549988166001600160a01b03199a8b1617905592519285018054939096169290971691909117909355915160038201559251805192939261048a92600485019201906106a5565b5060a082015180516104a69160058401916020909101906106a5565b5060c082015181600601559050505b6002805460010190556040517f30d01d358fb0899fe4d50947b2e9301c952d9eed09b14c7ecdcbeed4434557c4906104fa90899089908990899087908a908a906109df565b60405180910390a150505050505050565b60025481565b60016020818152600092835260409283902080548184015460028084015460038501546004860180548a516101009a8216159a909a02600019011693909304601f810188900488028901880190995288885293976001600160a01b039384169793909116959394938301828280156105ca5780601f1061059f576101008083540402835291602001916105ca565b820191906000526020600020905b8154815290600101906020018083116105ad57829003601f168201915b5050505060058301805460408051602060026001851615610100026000190190941693909304601f810184900484028201840190925281815294959493509083018282801561065a5780601f1061062f5761010080835404028352916020019161065a565b820191906000526020600020905b81548152906001019060200180831161063d57829003601f168201915b5050505050908060060154905087565b6040805160e08101825260008082526020820181905291810182905260608082018390526080820181905260a082015260c081019190915290565b828054600181600116156101000203166002900490600052602060002090601f016020900481019282601f106106e657805160ff1916838001178555610713565b82800160010185558215610713579182015b828111156107135782518255916020019190600101906106f8565b5061071f929150610723565b5090565b6102c491905b8082111561071f5760008155600101610729565b600082601f83011261074d578081fd5b813567ffffffffffffffff80821115610764578283fd5b604051601f8301601f191681016020018281118282101715610784578485fd5b60405282815292508284830160200186101561079f57600080fd5b8260208601602083013760006020848301015250505092915050565b60008060008060008060c087890312156107d3578182fd5b8635955060208701356107e581610a7f565b945060408701356107f581610a7f565b935060608701359250608087013567ffffffffffffffff80821115610818578384fd5b6108248a838b0161073d565b935060a0890135915080821115610839578283fd5b5061084689828a0161073d565b9150509295509295509295565b600060208284031215610864578081fd5b5035919050565b60008151808452815b8181101561089057602081850181015186830182015201610874565b818111156108a15782602083870101525b50601f01601f19169290920160200192915050565b60208082528251828201819052600091906040908185019080840286018301878501865b8381101561097157888303603f19018552815180518452878101516001600160a01b03908116898601528782015116878501526060808201519085015260808082015160e082870181905291906109338388018261086b565b91505060a09150818301518682038388015261094f828261086b565b60c09485015197909401969096525050948701949250908601906001016108da565b509098975050505050505050565b8781526001600160a01b038781166020830152861660408201526060810185905260e0608082018190526000906109b89083018661086b565b82810360a08401526109ca818661086b565b9150508260c083015298975050505050505050565b8781526001600160a01b03878116602083015286166040820152606081018590526080810184905260e060a08201819052600090610a1f9083018561086b565b82810360c0840152610a31818561086b565b9a9950505050505050505050565b6020808252601b908201527f5472616e73616374696f6e206572726f72206f63637572726564210000000000604082015260600190565b90815260200190565b6001600160a01b0381168114610a9457600080fd5b5056fea264697066735822122027f5c5971153096749971ce0db362f7b719b6d0a3eb80fe7fdbecdfe4bdcba9e64736f6c63430006060033",
  "immutableReferences": {},
  "source": "pragma solidity ^0.6.6;\n\nimport './Transactions.sol';\n\ncontract Medicine {\n\n    address Owner;\n\n    enum medicineStatus {\n        atManufacturer,\n        pickedForW,\n        pickedForD,\n        deliveredAtW,\n        deliveredAtD,\n        pickedForC,\n        deliveredAtC\n    }\n\n    bytes32 description;\n    address[] rawMaterials;\n    address[] transporters;\n    address manufacturer;\n    address wholesaler;\n    address distributor;\n    address customer;\n    uint quantity;\n    medicineStatus status;\n    address txnContractAddress;\n\n    event ShippmentUpdate(\n        address indexed BatchID,\n        address indexed Shipper,\n        address indexed Receiver,\n        uint TransporterType,\n        uint Status\n    );\n\n\n    constructor(\n        address _manufacturerAddr,\n        bytes32 _description,\n        address[] memory _rawAddr,\n        uint _quantity,\n        address[] memory _transporterAddr\n    ) public {\n        Owner = _manufacturerAddr;\n        manufacturer = _manufacturerAddr;\n        description = _description;\n        rawMaterials = _rawAddr;\n        quantity = _quantity;\n        transporters = _transporterAddr;\n        wholesaler = address(0x0);\n        distributor = address(0x0);\n        status = medicineStatus(0);\n        Transactions txnContract = new Transactions(_manufacturerAddr);\n        txnContractAddress = address(txnContract);\n    }\n\n\n    function getMedicineInfo () public view returns(\n        address _manufacturerAddr,\n        bytes32 _description,\n        address[] memory _rawAddr,\n        uint _quantity,\n        address[] memory _transporterAddr,\n        address _distributor,\n        uint _status,\n        address _txnContract,\n        address _wholesaler\n    ) {\n        return(\n            manufacturer,\n            description,\n            rawMaterials,\n            quantity,\n            transporters,\n            distributor,\n            uint(status),\n            txnContractAddress,\n            wholesaler\n        );\n    }\n\n \n    function getWDC() public view returns(\n        address[3] memory WDP\n    ) {\n        return (\n            [wholesaler, distributor, customer]\n        );\n    }\n\n    function getBatchIDStatus() public view returns(\n        uint\n    ) {\n        return uint(status);\n    }\n\n\n    function pickMedicine(\n        address _transporterAddr\n    ) public {\n        require(\n            _transporterAddr == transporters[transporters.length - 1],\n            \"Only Transporter can call this function\"\n        );\n        require(\n            status == medicineStatus(0),\n            \"Package must be at Manufacturer.\"\n        );\n\n        if(wholesaler != address(0x0)){\n            status = medicineStatus(1);\n            emit ShippmentUpdate(address(this), _transporterAddr, wholesaler, 1, 1);\n        }else{\n            status = medicineStatus(2);\n            emit ShippmentUpdate(address(this), _transporterAddr, distributor, 1, 2);\n        }\n    }\n    \n    function updateTransporterArray(address _transporterAddr) public {\n        transporters.push(_transporterAddr);\n    }\n\n    function updateWholesalerAddress(address addr) public {\n        wholesaler = addr;\n    }\n\n    function updateDistributorAddress(address addr) public {\n        distributor = addr;\n    }\n\n    function receivedMedicine(\n        address _receiverAddr\n    ) public returns(uint) {\n\n        require(\n            _receiverAddr == wholesaler || _receiverAddr == distributor || _receiverAddr == customer,\n            \"Only Wholesaler or Distributor can call this function\"\n        );\n\n        require(\n            uint(status) >= 1,\n            \"Product not picked up yet\"\n        );\n\n        if(_receiverAddr == wholesaler && status == medicineStatus(1)){\n            status = medicineStatus(3);\n            emit ShippmentUpdate(address(this), transporters[transporters.length - 1], wholesaler, 2, 3);\n            return 1;\n        } else if(_receiverAddr == distributor && status == medicineStatus(2)){\n            status = medicineStatus(4);\n            emit ShippmentUpdate(address(this), transporters[transporters.length - 1], distributor,3, 4);\n            return 2;\n        }\n        else if(_receiverAddr == customer && status == medicineStatus(5)){\n            status = medicineStatus(6);\n            emit ShippmentUpdate(address(this), transporters[transporters.length - 1], customer,4, 5);\n            return 3;\n        }\n    }\n\n\n    function sendWtoD(\n        address receiver,\n        address sender\n    ) public {\n        require(\n            wholesaler == sender,\n            \"this Wholesaler is not Associated.\"\n        );\n        distributor = receiver;\n        status = medicineStatus(2);\n    }\n\n\n    function receivedWtoD(\n        address receiver\n    ) public {\n        require(\n            distributor == receiver,\n            \"This Distributor is not Associated.\"\n        );\n        status = medicineStatus(4);\n    }\n\n\n    function sendDtoC(\n        address receiver,\n        address sender\n    ) public {\n        require(\n            distributor == sender,\n            \"This Distributor is not Associated.\"\n        );\n        customer = receiver;\n        status = medicineStatus(5);\n    }\n\n\n    function receivedDtoC(\n        address receiver\n    ) public {\n        require(\n            customer == receiver,\n            \"This Customer is not Associated.\"\n        );\n        status = medicineStatus(6);\n    }\n}",
  "sourcePath": "C:\\Users\\user\\Downloads\\louay\\pharma-Chain-master-2\\blockchain\\testing\\Medicine.sol",
  "compiler": {
    "name": "solc",
    "version": "0.6.6+commit.6c089d02.Emscripten.clang"
  },
  "schemaVersion": "3.4.7",
  "updatedAt": "2022-12-08T20:06:55.212Z",
  "devdoc": {
    "methods": {}
  },
  "userdoc": {
    "methods": {}
  }
}